:100000000C9462000C948A000C948A000C948A0070
:100010000C948A000C948A000C948A000C948A0038
:100020000C948A000C948A000C948A000C948A0028
:100030000C948A000C948A000C948A000C948A0018
:100040000C9471050C948A000C948A000C948A001C
:100050000C948A000C948A000C948A000C948A00F8
:100060000C94BB050C948A000000000024002700BB
:100070002A0000000000250028002B0000000000DE
:1000800023002600290004040404040404040202DA
:100090000202020203030303030301020408102007
:1000A0004080010204081020010204081020000012
:1000B0000008000201000003040700000000000027
:1000C0000000E90611241FBECFEFD8E0DEBFCDBF90
:1000D00011E0A0E0B1E0EEE1F2E102C005900D9286
:1000E000A635B107D9F722E0A6E5B1E001C01D921F
:1000F000AB36B207E1F710E0C2E6D0E004C02197CA
:10010000FE010E940209C136D107C9F70E947A0791
:100110000C940D090C94000096E0899FD0011124E5
:10012000AC51BE4F90967C936E935F9791E0919601
:100130009C93919790915002E0915102F09152025C
:10014000992339F0309751F0811108C08091000255
:1001500004C0309719F05C968C9109940895CF9261
:10016000DF92EF92FF920F931F93CF93DF936C0177
:100170007A018B01C0E0D0E0CE15DF0589F0D8010F
:100180006D918D01D601ED91FC910190F081E02DF2
:10019000C6010995892B11F47E0102C02196ECCF8E
:1001A000C701DF91CF911F910F91FF90EF90DF90EA
:1001B000CF900895833081F028F4813099F0823017
:1001C000A1F008958730A9F08830B9F08430D1F4D7
:1001D000809180008F7D03C0809180008F77809315
:1001E0008000089584B58F7702C084B58F7D84BD6B
:1001F00008958091B0008F7703C08091B0008F7D0B
:100200008093B0000895CF93DF93282F30E0F90159
:10021000E255FF4F8491F901E656FF4FD491F90161
:10022000EA57FF4FC491CC2391F081110E94DA006C
:10023000EC2FF0E0EE0FFF1FE458FF4FA591B491B3
:10024000EC91ED2381E090E021F480E002C080E0B9
:1002500090E0DF91CF9108951F93CF93DF93282FE4
:1002600030E0F901E255FF4F8491F901E656FF4F66
:10027000D491F901EA57FF4FC491CC23C9F0162F4E
:1002800081110E94DA00EC2FF0E0EE0FFF1FEE5814
:10029000FF4FA591B4918FB7F894111105C09C91AF
:1002A000ED2FE095E92302C0EC91ED2BEC938FBF8D
:1002B000DF91CF911F910895CF93DF9390E0FC01E0
:1002C000E656FF4F2491FC01EA57FF4F84918823A3
:1002D00061F190E0880F991FFC01E859FF4FC5912B
:1002E000D491FC01EE58FF4FA591B491611109C062
:1002F0009FB7F8948881209582238883EC912E23E0
:100300000BC0623061F49FB7F8943881822F8095DA
:1003100083238883EC912E2B2C939FBF06C08FB72D
:10032000F894E8812E2B28838FBFDF91CF91089519
:100330003FB7F8948091C6019091C701A091C80180
:10034000B091C90126B5A89B05C02F3F19F00196B1
:10035000A11DB11D3FBFBA2FA92F982F8827820F4B
:10036000911DA11DB11DBC01CD0142E0660F771F9B
:10037000881F991F4A95D1F708952FB7F894609177
:10038000C2017091C3018091C4019091C5012FBF3A
:1003900008950F931F93CF93DF93C82FD62F86E036
:1003A000C89FF0011124EC51FE4F11A2878D90A13E
:1003B00081309105F1F01CF4892B49F043C0823063
:1003C0009105A9F10397F1F560E070E034C0662370
:1003D000C9F161E070E08C2F0E948C000E94BD0189
:1003E00060933C0270933D0280933E0290933F02E3
:1003F00029C00E94BD0100913C0210913D02209154
:100400003E0230913F02AB01BC01401B510B620B1D
:10041000730B80914E0290914F02A0E0B0E08417E0
:100420009507A607B70718F462E070E004C0D11181
:1004300009C063E070E08C2FDF91CF911F910F9185
:100440000C948C00DF91CF911F910F910895CF9361
:10045000DF93EC0160E08E810E942C0161E08E81CF
:100460000E942C0160E08E810E942C018BE891E0BB
:100470000197F1F7DF91CF910895CF92DF92EF923C
:10048000FF920F931F93CF93DF937C016C0187E062
:10049000C80ED11CC0E0D0E0062F10E0B8010C2E31
:1004A00002C0759567950A94E2F76170F601819133
:1004B0006F010E942C012196C430D10579F7C70144
:1004C000DF91CF911F910F91FF90EF90DF90CF9030
:1004D0000C942702CF92DF92EF92FF920F931F931B
:1004E000CF93DF93EC01F62E642F8C810E942C01B8
:1004F0008D818F3F19F060E00E942C018F850F2DB8
:1005000010E084FF25C06E0187E0C80ED11CE12CED
:10051000F12CB8010E2C02C0759567950A94E2F78C
:100520006170F60181916F010E942C01FFEFEF1ABB
:10053000FF0A88E0E816F10461F7CE01DF91CF9160
:100540001F910F91FF90EF90DF90CF900C942702B6
:10055000B80184E0759567958A95E1F7CE010E9410
:100560003D026F2DCE01DF91CF911F910F91FF9032
:10057000EF90DF90CF900C943D0241E00E946A0220
:1005800081E090E0089540E00C946A02EF92FF92BF
:100590000F931F93CF93DF93EC01623018F08F8598
:1005A00088608F876B8B1C8A80E48D8B80E18E8BBB
:1005B00080E58F8B61E08C810E945C018D818F3F93
:1005C00019F061E00E945C0161E08E810E945C0193
:1005D0007E0187E0E80EF11C00E010E08F8584FDCD
:1005E00003C084E090E002C088E090E0081719079B
:1005F0004CF461E0F70181917F010E945C010F5F83
:100600001F4FECCF8BE39DE00197F1F760E08C8109
:100610000E942C0160E08E810E942C018D818F3F11
:1006200019F060E00E942C016F8564FD1DC063E03D
:10063000CE010E943D020BE416E4C8010197F1F7D8
:1006400063E0CE010E943D02C8010197F1F763E02B
:10065000CE010E943D0283E592E00197F1F762E04E
:10066000CE010E943D0216C06062CE010E94C3020C
:100670008BE496E40197F1F76F856062CE010E94EA
:10068000C30283E592E00197F1F76F856062CE01C6
:100690000E94C3026F856062CE010E94C30284E0A3
:1006A000888B6CE0CE010E94C30261E0CE010E9403
:1006B000C3028BE39FE10197F1F782E0898B66E04B
:1006C000CE01DF91CF911F910F91FF90EF900C948D
:1006D000C302643008F063E090916602691710F07D
:1006E0006FEF690FE62FF0E0ED5AFD4F9489682F08
:1006F000690F606883E592E00C94C302862F0C9426
:100700000301862F642F0C942C01862F642F0C94E8
:100710005C0185ED8093BC008091BC0084FDFCCF22
:100720001092CC01089540917801262F30E0240FDB
:10073000311D21323105DCF42091CC012430C9F483
:10074000FC0180E090E0861758F430917801219107
:10075000DC01AA5ABE4FA30FB11D2C930196F3CF13
:1007600080917801680F6093780180E0089581E0BE
:10077000089582E00895089581E090E03091D001DD
:100780002091CF01321710F480E090E0919581958F
:10079000910908958091D0019091CF01891730F48B
:1007A0008F5F8093D00180E090E008958FEF9FEFFE
:1007B00008958091CF0190E02091D001821B910992
:1007C0000895CF93DF9300D0CDB7DEB7CB01642F70
:1007D00049835A830E9493034981842F5A81952F1C
:1007E0000F900F90DF91CF910895CF93DF931F92D9
:1007F000CDB7DEB7698361E0CE0101960E94930315
:1008000081E090E00F90DF91CF910895089580E00E
:1008100090E008956F927F928F929F92AF92BF92D5
:10082000CF92DF92EF92FF920F931F93CF93DF93BC
:1008300081E0809350020E94BD010091400210911E
:1008400041022091420230914302AB01BC01401BA6
:10085000510B620B730B80914C0290914D02A0E002
:10086000B0E084179507A607B70708F011C1C0E0EC
:1008700080914A02C81760F4E0914602F091470265
:10088000EC0FF11D62E080810E945C01CF5FF0CF30
:10089000712C812C912C5401839480914B027816F9
:1008A00008F05FC0072D10E0E0914802F091490286
:1008B000E00FF11F61E080810E945C01E09148023D
:1008C000F0914902E00FF11F60E080810E942C014D
:1008D000D501C401072C04C0880F991FAA1FBB1F94
:1008E0000A94D2F76C017C01E094F094612C809121
:1008F0004A026816F8F4C62DD0E0E0914602F09165
:100900004702EC0FFD1F80810E9403012496CC0F4B
:10091000DD1FCC51DE4F892B29F4888199818C29E8
:100920009D2904C0888199818E219F219983888384
:100930006394DDCFE0914802F0914902E00FF11F8E
:1009400061E080810E942C018091480290914902CF
:10095000FC01E00FF11F60E080810E945C01739454
:100960009CCFE0E0F2E08FEF9FEF23813481232BD7
:1009700021F41082928381831582369622E0EC3333
:10098000F20799F710E096E0F92E80914A021817C5
:1009900008F052C000E0C12FD0E0CC0FDD1FC451E1
:1009A000DE4F20914B02021708F044C06881798124
:1009B000002E02C0769567950A94E2F7617077275A
:1009C000129F90011124200F311DE0914402F091FB
:1009D0004502E20FF31F4081E4EEF1E080E0A58DD7
:1009E000B68DA217B30711F461701AC08F5F3696E7
:1009F0008A30A9F7672BE1F0E0E0F2E080E090E0D8
:100A00005081511110C0F89EF001F99EF00D112493
:100A1000EC51FE4F448F368F258F10A2178E61E068
:100A20000E94C90105C0019636968A30910541F7AA
:100A30000F5FB7CF1F5FA9CF80E090E0C0E0FC015F
:100A4000EC51FE4F21A12111C1E006968C33910596
:100A5000B1F70E94BD016093400270934102809300
:100A6000420290934302CC2399F08091050288239F
:100A700079F08091030290910402019749F4C091AA
:100A80000002CC2341F062E08AE00E94690303C0C7
:100A900010925002C0E08C2FDF91CF911F910F91E7
:100AA000FF90EF90DF90CF90BF90AF909F908F908E
:100AB0007F906F900895009769F0FC0101900020ED
:100AC000E9F73197AF01481B590BBC0183E592E070
:100AD0000C94AF0080E090E008950E9408090C9407
:100AE000D8081F920F920FB60F9211242F933F93A5
:100AF0008F939F93AF93BF938091C2019091C30155
:100B0000A091C401B091C5013091C10123E0230F30
:100B10002D3720F40196A11DB11D05C026E8230F35
:100B20000296A11DB11D2093C1018093C201909333
:100B3000C301A093C401B093C5018091C6019091F7
:100B4000C701A091C801B091C9010196A11DB11DB5
:100B50008093C6019093C701A093C801B093C901C7
:100B6000BF91AF919F918F913F912F910F900FBEA9
:100B70000F901F9018951F920F920FB60F9211248D
:100B80002F933F934F935F936F937F938F939F9395
:100B9000AF93BF93EF93FF938091B900887F803626
:100BA00009F49CC068F5883209F45BC090F4803188
:100BB00009F454C038F4882309F4F6C0883009F4E5
:100BC0004DC0F6C0883109F44CC0803209F45DC0D4
:100BD000EFC0803409F468C048F4803309F455C08C
:100BE000883309F0E5C080939D01D8C0803509F4B1
:100BF0004FC0883509F45DC0883409F0D9C0D6C02B
:100C0000883909F4C7C0A8F4883709F467C038F4F4
:100C1000883609F463C0803709F460C0C9C08838D9
:100C200009F4B8C0803909F45FC0803809F0C0C049
:100C30005BC0803B09F486C038F4803A09F466C092
:100C4000883A09F47FC0B4C0803C09F4A7C0883C4E
:100C500009F4A4C0883B09F48AC0AAC08091C001ED
:100C600010C09091BF018091BE01981770F5E0917E
:100C7000BF0181E08E0F8093BF01F0E0E256FE4F8E
:100C800080818093BB0085EC86C080939D018EC0DF
:100C9000E091BF0181E08E0F8093BF018091BB0086
:100CA000F0E0E256FE4F80839091BF018091BE013B
:100CB0006EC0E091BF0181E08E0F8093BF018091F3
:100CC000BB00F0E0E256FE4F80838091CB018111A2
:100CD0006DC081E08093CA0184EA61C083E08093A3
:100CE000CC0110929C01CFCF80919C01803208F002
:100CF00051C0E0919C0181E08E0F80939C01809116
:100D0000BB00F0E0E458FE4F8083BDCF85EC8093BC
:100D1000BC001092CC0180919C01803230F4E091B3
:100D20009C01F0E0E458FE4F108260919C0170E05D
:100D3000E0917A01F0917B018CE791E009951092A6
:100D40009C0136C084E08093CC011092790110920E
:100D50007801E0917601F091770109958091780111
:100D6000811105C081E08093780110925601E091D5
:100D7000790181E08E0F80937901F0E0EA5AFE4F0D
:100D800080818093BB0090917901809178019817C0
:100D900008F479CF85E88093BC000AC085EC809385
:100DA000BC001092CC0104C010929D010E948903E6
:100DB000FF91EF91BF91AF919F918F917F916F9133
:100DC0005F914F913F912F910F900FBE0F901F9009
:100DD00018951092DB011092DA0188EE93E0A0E002
:100DE000B0E08093DC019093DD01A093DE01B0932D
:100DF000DF018CE191E09093D9018093D8011092AA
:100E000056021092550288E391E090935402809329
:100E1000530289E0809357028FEF809358028AE053
:100E2000809359028CE080935A028DE080935B029C
:100E30008EE080935C028FE080935D0210925E02F0
:100E400010925F0210926002109261021092620290
:100E500061E083E592E00E94C6021092E6011092E2
:100E6000EA011092E9011092EB018EE291E0909379
:100E7000E5018093E40180E090E0FC01EC51FE4F3D
:100E8000148E10A2178E11A206968C339105A9F725
:100E900084E091E0909347028093460280E091E0E5
:100EA000909349028093480284E080934A028093A1
:100EB0004B0288E091E090934502809344028AE0DF
:100EC00090E090934D0280934C0284EF91E09093D8
:100ED0004F0280934E0210925202109251021092D1
:100EE000400210924102109242021092430210926C
:100EF00050020895CF93DF93CDB7DEB7A1970FB619
:100F0000F894DEBF0FBECDBF789484B5826084BDF7
:100F100084B5816084BD85B5826085BD85B58160FD
:100F200085BD80916E00816080936E00109281007B
:100F30008091810082608093810080918100816036
:100F400080938100809180008160809380008091F7
:100F5000B10084608093B1008091B0008160809383
:100F6000B00080917A00846080937A0080917A004A
:100F7000826080937A0080917A00816080937A0009
:100F800080917A00806880937A001092C10010925C
:100F9000D0011092CF011092CE011092CD0110928B
:100FA000CC0181E08093CB011092CA0161E082E123
:100FB0000E942C0161E083E10E942C018091B90024
:100FC0008E7F8093B9008091B9008D7F8093B900A6
:100FD00088E48093B80085E48093BC0062E083E5F8
:100FE00092E00E94C6020E9498012B013C0134EF5E
:100FF000C32EDD24D394E12CF12C0E949801DC0156
:10100000CB0184199509A609B709883E9340A1052B
:10101000B10558F021E0C21AD108E108F10888EEC4
:10102000480E83E0581E611C711CC114D104E104F8
:10103000F10419F781E090E00E946F058093D701D9
:1010400082E090E00E946F058093D60183E090E0FB
:101050000E946F058093D50184E090E00E946F05A7
:101060008093D40185E090E00E946F058093D301C6
:1010700086E090E00E946F058093D20187E090E0C7
:101080000E946F058093D10188E090E00E946F0577
:101090008093D2018BE3C82E8FE1D82E9AE0492E9F
:1010A000512C612C712C20E0222E20E0322E0E9447
:1010B0000A04843409F071C010E061E083E592E035
:1010C0000E94C302C6010197F1F7612F81E00E94DF
:1010D00069030E940A04882381F3823409F459C009
:1010E0009DEB980F923048F3E82E880FFF08F0E34D
:1010F000EF1AF10880E491E00E945B0566E081E070
:101100000E94690347010F2C000CAA08BB08F7FED8
:1011100026C0E0915302F09154020190F081E02D3D
:101120006DE283E592E0099522273327A90128196A
:1011300039094A095B0919A2CE0181967C01CA01CD
:10114000B901A30192010E94E008605DF70162937A
:101150007F01211531054105510589F715C0A5010C
:10116000940119A2CE0181967C01CA01B901A301A3
:1011700092010E94E008605DF70162937F012115F2
:1011800031054105510589F7C7010E945B051F5FC5
:1011900094CF8FE491E00E945B0587E491E00E9488
:1011A0005B052114310409F482CF0E9400007FCF37
:1011B000F999FECF92BD81BDF89A992780B508951F
:1011C000A1E21A2EAA1BBB1BFD010DC0AA1FBB1F4B
:1011D000EE1FFF1FA217B307E407F50720F0A21BBD
:1011E000B30BE40BF50B661F771F881F991F1A942A
:1011F00069F760957095809590959B01AC01BD0154
:10120000CF010895EE0FFF1F0590F491E02D099492
:0E12100081E090E0F8940C940D09F894FFCF63
:10121E000B081011020304063132334134353642C5
:10122E00373839432A30234400000000F503E10328
:10123E000704BB03D903CA03BC03000000008503E7
:10124E0081037E0300000000BD02AF000704060408
:10125E00696E73696465006B746F206D6120007335
:06126E00657863790000C1
:107E0000112484B714BE81FFF0D085E080938100F7
:107E100082E08093C00088E18093C10086E0809377
:107E2000C20080E18093C4008EE0C9D0259A86E02C
:107E300020E33CEF91E0309385002093840096BBD3
:107E4000B09BFECF1D9AA8958150A9F7CC24DD24C4
:107E500088248394B5E0AB2EA1E19A2EF3E0BF2EE7
:107E6000A2D0813461F49FD0082FAFD0023811F036
:107E7000013811F484E001C083E08DD089C08234E0
:107E800011F484E103C0853419F485E0A6D080C0E4
:107E9000853579F488D0E82EFF2485D0082F10E0AE
:107EA000102F00270E291F29000F111F8ED06801E7
:107EB0006FC0863521F484E090D080E0DECF843638
:107EC00009F040C070D06FD0082F6DD080E0C81688
:107ED00080E7D80618F4F601B7BEE895C0E0D1E017
:107EE00062D089930C17E1F7F0E0CF16F0E7DF06D8
:107EF00018F0F601B7BEE89568D007B600FCFDCFD4
:107F0000A601A0E0B1E02C9130E011968C91119780
:107F100090E0982F8827822B932B1296FA010C0160
:107F200087BEE89511244E5F5F4FF1E0A038BF0790
:107F300051F7F601A7BEE89507B600FCFDCF97BE46
:107F4000E89526C08437B1F42ED02DD0F82E2BD052
:107F50003CD0F601EF2C8F010F5F1F4F84911BD097
:107F6000EA94F801C1F70894C11CD11CFA94CF0C13
:107F7000D11C0EC0853739F428D08EE10CD085E9AC
:107F80000AD08FE07ACF813511F488E018D01DD067
:107F900080E101D065CF982F8091C00085FFFCCF94
:107FA0009093C60008958091C00087FFFCCF809118
:107FB000C00084FD01C0A8958091C6000895E0E648
:107FC000F0E098E1908380830895EDDF803219F02E
:107FD00088E0F5DFFFCF84E1DECF1F93182FE3DFCA
:107FE0001150E9F7F2DF1F91089580E0E8DFEE27F6
:047FF000FF270994CA
:027FFE00040479
:0400000300007E007B
:00000001FF
